:100000000C9438000C9442000C9442000C94420072
:100010000C9442000C9442000C9442000C94420058
:100020000C9442000C9442000C9442000C94420048
:100030000C9442000C9442000C9442000C94420038
:100040000C9442000C9442000C9442000C94420028
:100050000C9442000C9442000C9442000C94420018
:100060000C9442000C9442000C9442000C94420008
:1000700011241FBECFEFD4E0DEBFCDBF0E944400ED
:100080000C945F000C9400000E94490080E090E016
:100090000895D09AD89A2FEF8FEF9EE0215080409C
:1000A0009040E1F700C00000D8982FEF8FEF9EE05E
:1000B000215080409040E1F700C00000EBCFF89461
:0200C000FFCF70
:00000001FF
