:100000000C9438000C9442000C9442000C94420072
:100010000C9442000C9442000C9442000C94420058
:100020000C9442000C9442000C9442000C94420048
:100030000C9442000C9442000C9442000C94420038
:100040000C9442000C9442000C9442000C94420028
:100050000C9442000C9442000C9442000C94420018
:100060000C9442000C9442000C9442000C94420008
:1000700011241FBECFEFD4E0DEBFCDBF0E944400ED
:100080000C9477000C9400008BE090E00E945200EA
:1000900088E70E9459008CEC94E00197F1F700C0CA
:1000A0000000F6CF90BD89B988E18AB98EE880BD9D
:1000B00008955D9BFECF8CB908955F9BFECF8CB1F8
:1000C0000895D09AD89A2FEF8FEF9EE0215080406C
:1000D0009040E1F700C00000D8982FEF8FEF9EE02E
:1000E000215080409040E1F700C00000EBCFF89431
:0200F000FFCF40
:00000001FF
